{
  "_format": "hh-sol-artifact-1",
  "contractName": "CarbonCredits",
  "sourceName": "contracts/CarbonCredits.sol",
  "abi": [
    {
      "inputs": [],
      "stateMutability": "nonpayable",
      "type": "constructor"
    },
    {
      "anonymous": false,
      "inputs": [
        {
          "indexed": true,
          "internalType": "uint256",
          "name": "projectId",
          "type": "uint256"
        },
        {
          "indexed": true,
          "internalType": "address",
          "name": "submitter",
          "type": "address"
        },
        {
          "indexed": false,
          "internalType": "uint256",
          "name": "tokensAllocated",
          "type": "uint256"
        }
      ],
      "name": "ProjectApproved",
      "type": "event"
    },
    {
      "anonymous": false,
      "inputs": [
        {
          "indexed": true,
          "internalType": "uint256",
          "name": "projectId",
          "type": "uint256"
        },
        {
          "indexed": true,
          "internalType": "address",
          "name": "submitter",
          "type": "address"
        }
      ],
      "name": "ProjectRejected",
      "type": "event"
    },
    {
      "anonymous": false,
      "inputs": [
        {
          "indexed": true,
          "internalType": "uint256",
          "name": "projectId",
          "type": "uint256"
        },
        {
          "indexed": true,
          "internalType": "address",
          "name": "submitter",
          "type": "address"
        },
        {
          "indexed": false,
          "internalType": "string",
          "name": "name",
          "type": "string"
        }
      ],
      "name": "ProjectSubmitted",
      "type": "event"
    },
    {
      "anonymous": false,
      "inputs": [
        {
          "indexed": true,
          "internalType": "address",
          "name": "user",
          "type": "address"
        },
        {
          "indexed": false,
          "internalType": "uint256",
          "name": "amount",
          "type": "uint256"
        },
        {
          "indexed": false,
          "internalType": "uint256",
          "name": "projectId",
          "type": "uint256"
        }
      ],
      "name": "TokensAllocated",
      "type": "event"
    },
    {
      "inputs": [],
      "name": "TOKENS_PER_TON",
      "outputs": [
        {
          "internalType": "uint256",
          "name": "",
          "type": "uint256"
        }
      ],
      "stateMutability": "view",
      "type": "function"
    },
    {
      "inputs": [],
      "name": "admin",
      "outputs": [
        {
          "internalType": "address",
          "name": "",
          "type": "address"
        }
      ],
      "stateMutability": "view",
      "type": "function"
    },
    {
      "inputs": [
        {
          "internalType": "uint256",
          "name": "_projectId",
          "type": "uint256"
        }
      ],
      "name": "approveProject",
      "outputs": [],
      "stateMutability": "nonpayable",
      "type": "function"
    },
    {
      "inputs": [],
      "name": "getAllProjects",
      "outputs": [
        {
          "components": [
            {
              "internalType": "uint256",
              "name": "id",
              "type": "uint256"
            },
            {
              "internalType": "string",
              "name": "name",
              "type": "string"
            },
            {
              "internalType": "string",
              "name": "projectType",
              "type": "string"
            },
            {
              "internalType": "string",
              "name": "location",
              "type": "string"
            },
            {
              "internalType": "uint256",
              "name": "carbonCapture",
              "type": "uint256"
            },
            {
              "internalType": "string",
              "name": "description",
              "type": "string"
            },
            {
              "internalType": "address",
              "name": "submitter",
              "type": "address"
            },
            {
              "internalType": "enum CarbonCredits.ProjectStatus",
              "name": "status",
              "type": "uint8"
            },
            {
              "internalType": "uint256",
              "name": "tokensAllocated",
              "type": "uint256"
            },
            {
              "internalType": "uint256",
              "name": "submittedAt",
              "type": "uint256"
            },
            {
              "internalType": "uint256",
              "name": "approvedAt",
              "type": "uint256"
            }
          ],
          "internalType": "struct CarbonCredits.Project[]",
          "name": "",
          "type": "tuple[]"
        }
      ],
      "stateMutability": "view",
      "type": "function"
    },
    {
      "inputs": [],
      "name": "getPendingProjects",
      "outputs": [
        {
          "components": [
            {
              "internalType": "uint256",
              "name": "id",
              "type": "uint256"
            },
            {
              "internalType": "string",
              "name": "name",
              "type": "string"
            },
            {
              "internalType": "string",
              "name": "projectType",
              "type": "string"
            },
            {
              "internalType": "string",
              "name": "location",
              "type": "string"
            },
            {
              "internalType": "uint256",
              "name": "carbonCapture",
              "type": "uint256"
            },
            {
              "internalType": "string",
              "name": "description",
              "type": "string"
            },
            {
              "internalType": "address",
              "name": "submitter",
              "type": "address"
            },
            {
              "internalType": "enum CarbonCredits.ProjectStatus",
              "name": "status",
              "type": "uint8"
            },
            {
              "internalType": "uint256",
              "name": "tokensAllocated",
              "type": "uint256"
            },
            {
              "internalType": "uint256",
              "name": "submittedAt",
              "type": "uint256"
            },
            {
              "internalType": "uint256",
              "name": "approvedAt",
              "type": "uint256"
            }
          ],
          "internalType": "struct CarbonCredits.Project[]",
          "name": "",
          "type": "tuple[]"
        }
      ],
      "stateMutability": "view",
      "type": "function"
    },
    {
      "inputs": [
        {
          "internalType": "uint256",
          "name": "_projectId",
          "type": "uint256"
        }
      ],
      "name": "getProject",
      "outputs": [
        {
          "internalType": "uint256",
          "name": "id",
          "type": "uint256"
        },
        {
          "internalType": "string",
          "name": "name",
          "type": "string"
        },
        {
          "internalType": "string",
          "name": "projectType",
          "type": "string"
        },
        {
          "internalType": "string",
          "name": "location",
          "type": "string"
        },
        {
          "internalType": "uint256",
          "name": "carbonCapture",
          "type": "uint256"
        },
        {
          "internalType": "string",
          "name": "description",
          "type": "string"
        },
        {
          "internalType": "address",
          "name": "submitter",
          "type": "address"
        },
        {
          "internalType": "enum CarbonCredits.ProjectStatus",
          "name": "status",
          "type": "uint8"
        },
        {
          "internalType": "uint256",
          "name": "tokensAllocated",
          "type": "uint256"
        },
        {
          "internalType": "uint256",
          "name": "submittedAt",
          "type": "uint256"
        },
        {
          "internalType": "uint256",
          "name": "approvedAt",
          "type": "uint256"
        }
      ],
      "stateMutability": "view",
      "type": "function"
    },
    {
      "inputs": [],
      "name": "getProjectStats",
      "outputs": [
        {
          "internalType": "uint256",
          "name": "total",
          "type": "uint256"
        },
        {
          "internalType": "uint256",
          "name": "pending",
          "type": "uint256"
        },
        {
          "internalType": "uint256",
          "name": "approved",
          "type": "uint256"
        },
        {
          "internalType": "uint256",
          "name": "rejected",
          "type": "uint256"
        },
        {
          "internalType": "uint256",
          "name": "totalTokens",
          "type": "uint256"
        }
      ],
      "stateMutability": "view",
      "type": "function"
    },
    {
      "inputs": [
        {
          "internalType": "address",
          "name": "_user",
          "type": "address"
        }
      ],
      "name": "getUserProjects",
      "outputs": [
        {
          "internalType": "uint256[]",
          "name": "",
          "type": "uint256[]"
        }
      ],
      "stateMutability": "view",
      "type": "function"
    },
    {
      "inputs": [
        {
          "internalType": "address",
          "name": "_user",
          "type": "address"
        }
      ],
      "name": "getUserTokenBalance",
      "outputs": [
        {
          "internalType": "uint256",
          "name": "",
          "type": "uint256"
        }
      ],
      "stateMutability": "view",
      "type": "function"
    },
    {
      "inputs": [
        {
          "internalType": "uint256",
          "name": "",
          "type": "uint256"
        }
      ],
      "name": "projects",
      "outputs": [
        {
          "internalType": "uint256",
          "name": "id",
          "type": "uint256"
        },
        {
          "internalType": "string",
          "name": "name",
          "type": "string"
        },
        {
          "internalType": "string",
          "name": "projectType",
          "type": "string"
        },
        {
          "internalType": "string",
          "name": "location",
          "type": "string"
        },
        {
          "internalType": "uint256",
          "name": "carbonCapture",
          "type": "uint256"
        },
        {
          "internalType": "string",
          "name": "description",
          "type": "string"
        },
        {
          "internalType": "address",
          "name": "submitter",
          "type": "address"
        },
        {
          "internalType": "enum CarbonCredits.ProjectStatus",
          "name": "status",
          "type": "uint8"
        },
        {
          "internalType": "uint256",
          "name": "tokensAllocated",
          "type": "uint256"
        },
        {
          "internalType": "uint256",
          "name": "submittedAt",
          "type": "uint256"
        },
        {
          "internalType": "uint256",
          "name": "approvedAt",
          "type": "uint256"
        }
      ],
      "stateMutability": "view",
      "type": "function"
    },
    {
      "inputs": [
        {
          "internalType": "uint256",
          "name": "_projectId",
          "type": "uint256"
        }
      ],
      "name": "rejectProject",
      "outputs": [],
      "stateMutability": "nonpayable",
      "type": "function"
    },
    {
      "inputs": [
        {
          "internalType": "string",
          "name": "_name",
          "type": "string"
        },
        {
          "internalType": "string",
          "name": "_projectType",
          "type": "string"
        },
        {
          "internalType": "string",
          "name": "_location",
          "type": "string"
        },
        {
          "internalType": "uint256",
          "name": "_carbonCapture",
          "type": "uint256"
        },
        {
          "internalType": "string",
          "name": "_description",
          "type": "string"
        }
      ],
      "name": "submitProject",
      "outputs": [
        {
          "internalType": "uint256",
          "name": "",
          "type": "uint256"
        }
      ],
      "stateMutability": "nonpayable",
      "type": "function"
    },
    {
      "inputs": [],
      "name": "totalProjects",
      "outputs": [
        {
          "internalType": "uint256",
          "name": "",
          "type": "uint256"
        }
      ],
      "stateMutability": "view",
      "type": "function"
    },
    {
      "inputs": [],
      "name": "totalTokensAllocated",
      "outputs": [
        {
          "internalType": "uint256",
          "name": "",
          "type": "uint256"
        }
      ],
      "stateMutability": "view",
      "type": "function"
    },
    {
      "inputs": [
        {
          "internalType": "address",
          "name": "",
          "type": "address"
        },
        {
          "internalType": "uint256",
          "name": "",
          "type": "uint256"
        }
      ],
      "name": "userProjects",
      "outputs": [
        {
          "internalType": "uint256",
          "name": "",
          "type": "uint256"
        }
      ],
      "stateMutability": "view",
      "type": "function"
    },
    {
      "inputs": [
        {
          "internalType": "address",
          "name": "",
          "type": "address"
        }
      ],
      "name": "userTokenBalance",
      "outputs": [
        {
          "internalType": "uint256",
          "name": "",
          "type": "uint256"
        }
      ],
      "stateMutability": "view",
      "type": "function"
    }
  ],
  "bytecode": "0x608060405234801561001057600080fd5b50600080546001600160a01b03191633179055611efb806100326000396000f3fe608060405234801561001057600080fd5b50600436106101005760003560e01c80639c361e4e11610097578063f0f3f2c811610066578063f0f3f2c814610228578063f5aec88c1461023b578063f851a44014610264578063fc69d8361461028f57600080fd5b80639c361e4e146101ee578063c07f773a146101f7578063c7af864214610200578063e32e723c1461020857600080fd5b80633803e7bd116100d35780633803e7bd146101a957806369b04f19146101bc57806370a384f3146101d157806380d03829146101d957600080fd5b8063107046bd1461010557806329a87023146101385780632d6c1661146101665780632fa9c00714610196575b600080fd5b610118610113366004611819565b6102a2565b60405161012f9b9a999897969594939291906118b0565b60405180910390f35b61015861014636600461196d565b60046020526000908152604090205481565b60405190815260200161012f565b61016e610525565b604080519586526020860194909452928401919091526060830152608082015260a00161012f565b6101586101a436600461198f565b610630565b6101586101b7366004611a5c565b610661565b6101cf6101ca366004611819565b6108f8565b005b610158600181565b6101e1610a19565b60405161012f9190611b13565b61015860015481565b61015860025481565b6101e1610da2565b61021b61021636600461196d565b6111c7565b60405161012f9190611c35565b610118610236366004611819565b611233565b61015861024936600461196d565b6001600160a01b031660009081526004602052604090205490565b600054610277906001600160a01b031681565b6040516001600160a01b03909116815260200161012f565b6101cf61029d366004611819565b6115bc565b600360205260009081526040902080546001820180549192916102c490611c79565b80601f01602080910402602001604051908101604052809291908181526020018280546102f090611c79565b801561033d5780601f106103125761010080835404028352916020019161033d565b820191906000526020600020905b81548152906001019060200180831161032057829003601f168201915b50505050509080600201805461035290611c79565b80601f016020809104026020016040519081016040528092919081815260200182805461037e90611c79565b80156103cb5780601f106103a0576101008083540402835291602001916103cb565b820191906000526020600020905b8154815290600101906020018083116103ae57829003601f168201915b5050505050908060030180546103e090611c79565b80601f016020809104026020016040519081016040528092919081815260200182805461040c90611c79565b80156104595780601f1061042e57610100808354040283529160200191610459565b820191906000526020600020905b81548152906001019060200180831161043c57829003601f168201915b50505050509080600401549080600501805461047490611c79565b80601f01602080910402602001604051908101604052809291908181526020018280546104a090611c79565b80156104ed5780601f106104c2576101008083540402835291602001916104ed565b820191906000526020600020905b8154815290600101906020018083116104d057829003601f168201915b5050505060068301546007840154600885015460099095015493946001600160a01b03831694600160a01b90930460ff16935090918b565b60008080808080808060015b60015481116106195760008082815260036020526040902060060154600160a01b900460ff16600281111561056857610568611878565b0361057f578361057781611cc3565b945050610607565b6001600082815260036020526040902060060154600160a01b900460ff1660028111156105ae576105ae611878565b036105c557826105bd81611cc3565b935050610607565b6002600082815260036020526040902060060154600160a01b900460ff1660028111156105f4576105f4611878565b03610607578161060381611cc3565b9250505b8061061181611cc3565b915050610531565b506001546002549099939850919650945092509050565b6005602052816000526040600020818154811061064c57600080fd5b90600052602060002001600091509150505481565b60008083116106c55760405162461bcd60e51b815260206004820152602560248201527f436172626f6e2063617074757265206d75737420626520677265617465722074604482015264068616e20360dc1b60648201526084015b60405180910390fd5b60008651116107165760405162461bcd60e51b815260206004820152601c60248201527f50726f6a656374206e616d652063616e6e6f7420626520656d7074790000000060448201526064016106bc565b6001805490600061072683611cc3565b91905055506040518061016001604052806001548152602001878152602001868152602001858152602001848152602001838152602001336001600160a01b031681526020016000600281111561077f5761077f611878565b81526020016000815260200142815260200160008152506003600060015481526020019081526020016000206000820151816000015560208201518160010190816107ca9190611d2b565b50604082015160028201906107df9082611d2b565b50606082015160038201906107f49082611d2b565b506080820151600482015560a082015160058201906108139082611d2b565b5060c08201516006820180546001600160a01b039092166001600160a01b031983168117825560e0850151926001600160a81b03191617600160a01b83600281111561086157610861611878565b021790555061010082015160078201556101208201516008820155610140909101516009909101553360008181526005602090815260408083206001805482548083018455928652939094200191909155905490517f55da7e5e16004f5167a21b509f0d75bc212d7aa3f01efa5536d3aeaae0c849b3906108e3908a90611deb565b60405180910390a35060015495945050505050565b6000546001600160a01b031633146109225760405162461bcd60e51b81526004016106bc90611dfe565b8060008111801561093557506001548111155b6109515760405162461bcd60e51b81526004016106bc90611e40565b6000828152600360205260408120906006820154600160a01b900460ff16600281111561098057610980611878565b146109c65760405162461bcd60e51b815260206004820152601660248201527550726f6a656374206973206e6f742070656e64696e6760501b60448201526064016106bc565b600681018054600160a11b60ff60a01b198216179091556040516001600160a01b039091169084907f2455cf2c8889d7bb22a92851d7e1c3be5f44c5e3657dca1241c26857e3da95a590600090a3505050565b6060600060015467ffffffffffffffff811115610a3857610a386119b9565b604051908082528060200260200182016040528015610a7157816020015b610a5e6117a5565b815260200190600190039081610a565790505b50905060015b6001548111610d9c57600360008281526020019081526020016000206040518061016001604052908160008201548152602001600182018054610ab990611c79565b80601f0160208091040260200160405190810160405280929190818152602001828054610ae590611c79565b8015610b325780601f10610b0757610100808354040283529160200191610b32565b820191906000526020600020905b815481529060010190602001808311610b1557829003601f168201915b50505050508152602001600282018054610b4b90611c79565b80601f0160208091040260200160405190810160405280929190818152602001828054610b7790611c79565b8015610bc45780601f10610b9957610100808354040283529160200191610bc4565b820191906000526020600020905b815481529060010190602001808311610ba757829003601f168201915b50505050508152602001600382018054610bdd90611c79565b80601f0160208091040260200160405190810160405280929190818152602001828054610c0990611c79565b8015610c565780601f10610c2b57610100808354040283529160200191610c56565b820191906000526020600020905b815481529060010190602001808311610c3957829003601f168201915b5050505050815260200160048201548152602001600582018054610c7990611c79565b80601f0160208091040260200160405190810160405280929190818152602001828054610ca590611c79565b8015610cf25780601f10610cc757610100808354040283529160200191610cf2565b820191906000526020600020905b815481529060010190602001808311610cd557829003601f168201915b505050918352505060068201546001600160a01b0381166020830152604090910190600160a01b900460ff166002811115610d2f57610d2f611878565b6002811115610d4057610d40611878565b8152600782015460208201526008820154604082015260099091015460609091015282610d6e600184611e6c565b81518110610d7e57610d7e611e85565b60200260200101819052508080610d9490611cc3565b915050610a77565b50919050565b6060600060015b6001548111610e055760008082815260036020526040902060060154600160a01b900460ff166002811115610de057610de0611878565b03610df35781610def81611cc3565b9250505b80610dfd81611cc3565b915050610da9565b5060008167ffffffffffffffff811115610e2157610e216119b9565b604051908082528060200260200182016040528015610e5a57816020015b610e476117a5565b815260200190600190039081610e3f5790505b509050600060015b60015481116111be5760008082815260036020526040902060060154600160a01b900460ff166002811115610e9957610e99611878565b036111ac57600360008281526020019081526020016000206040518061016001604052908160008201548152602001600182018054610ed790611c79565b80601f0160208091040260200160405190810160405280929190818152602001828054610f0390611c79565b8015610f505780601f10610f2557610100808354040283529160200191610f50565b820191906000526020600020905b815481529060010190602001808311610f3357829003601f168201915b50505050508152602001600282018054610f6990611c79565b80601f0160208091040260200160405190810160405280929190818152602001828054610f9590611c79565b8015610fe25780601f10610fb757610100808354040283529160200191610fe2565b820191906000526020600020905b815481529060010190602001808311610fc557829003601f168201915b50505050508152602001600382018054610ffb90611c79565b80601f016020809104026020016040519081016040528092919081815260200182805461102790611c79565b80156110745780601f1061104957610100808354040283529160200191611074565b820191906000526020600020905b81548152906001019060200180831161105757829003601f168201915b505050505081526020016004820154815260200160058201805461109790611c79565b80601f01602080910402602001604051908101604052809291908181526020018280546110c390611c79565b80156111105780601f106110e557610100808354040283529160200191611110565b820191906000526020600020905b8154815290600101906020018083116110f357829003601f168201915b505050918352505060068201546001600160a01b0381166020830152604090910190600160a01b900460ff16600281111561114d5761114d611878565b600281111561115e5761115e611878565b8152602001600782015481526020016008820154815260200160098201548152505083838151811061119257611192611e85565b602002602001018190525081806111a890611cc3565b9250505b806111b681611cc3565b915050610e62565b50909392505050565b6001600160a01b03811660009081526005602090815260409182902080548351818402810184019094528084526060939283018282801561122757602002820191906000526020600020905b815481526020019060010190808311611213575b50505050509050919050565b600060608060606000606060008060008060008b60008111801561125957506001548111155b6112755760405162461bcd60e51b81526004016106bc90611e40565b6000600360008f815260200190815260200160002060405180610160016040529081600082015481526020016001820180546112b090611c79565b80601f01602080910402602001604051908101604052809291908181526020018280546112dc90611c79565b80156113295780601f106112fe57610100808354040283529160200191611329565b820191906000526020600020905b81548152906001019060200180831161130c57829003601f168201915b5050505050815260200160028201805461134290611c79565b80601f016020809104026020016040519081016040528092919081815260200182805461136e90611c79565b80156113bb5780601f10611390576101008083540402835291602001916113bb565b820191906000526020600020905b81548152906001019060200180831161139e57829003601f168201915b505050505081526020016003820180546113d490611c79565b80601f016020809104026020016040519081016040528092919081815260200182805461140090611c79565b801561144d5780601f106114225761010080835404028352916020019161144d565b820191906000526020600020905b81548152906001019060200180831161143057829003601f168201915b505050505081526020016004820154815260200160058201805461147090611c79565b80601f016020809104026020016040519081016040528092919081815260200182805461149c90611c79565b80156114e95780601f106114be576101008083540402835291602001916114e9565b820191906000526020600020905b8154815290600101906020018083116114cc57829003601f168201915b505050918352505060068201546001600160a01b0381166020830152604090910190600160a01b900460ff16600281111561152657611526611878565b600281111561153757611537611878565b815260200160078201548152602001600882015481526020016009820154815250509050806000015181602001518260400151836060015184608001518560a001518660c001518760e001518861010001518961012001518a61014001519c509c509c509c509c509c509c509c509c509c509c50505091939597999b90929496989a50565b6000546001600160a01b031633146115e65760405162461bcd60e51b81526004016106bc90611dfe565b806000811180156115f957506001548111155b6116155760405162461bcd60e51b81526004016106bc90611e40565b6000828152600360205260408120906006820154600160a01b900460ff16600281111561164457611644611878565b1461168a5760405162461bcd60e51b815260206004820152601660248201527550726f6a656374206973206e6f742070656e64696e6760501b60448201526064016106bc565b60068101805460ff60a01b1916600160a01b17905542600982015560048101546000906116b990600190611e9b565b6007830181905560068301546001600160a01b03166000908152600460205260408120805492935083929091906116f1908490611eb2565b92505081905550806002600082825461170a9190611eb2565b909155505060068201546040518281526001600160a01b039091169085907f74f80ffca0e020be3e7805e2a2810b062862641047e86356fe10043d9b43b89d9060200160405180910390a3600682015460408051838152602081018790526001600160a01b03909216917f4885d73252b9e2c420b677d64d50e8a5798773dbb4cb99c5a2ab2824f725d9a8910160405180910390a250505050565b60405180610160016040528060008152602001606081526020016060815260200160608152602001600081526020016060815260200160006001600160a01b03168152602001600060028111156117fe576117fe611878565b81526020016000815260200160008152602001600081525090565b60006020828403121561182b57600080fd5b5035919050565b6000815180845260005b818110156118585760208185018101518683018201520161183c565b506000602082860101526020601f19601f83011685010191505092915050565b634e487b7160e01b600052602160045260246000fd5b600381106118ac57634e487b7160e01b600052602160045260246000fd5b9052565b60006101608d83528060208401526118ca8184018e611832565b905082810360408401526118de818d611832565b905082810360608401526118f2818c611832565b905089608084015282810360a084015261190c818a611832565b6001600160a01b03891660c0850152915061192c905060e083018761188e565b8461010083015283610120830152826101408301529c9b505050505050505050505050565b80356001600160a01b038116811461196857600080fd5b919050565b60006020828403121561197f57600080fd5b61198882611951565b9392505050565b600080604083850312156119a257600080fd5b6119ab83611951565b946020939093013593505050565b634e487b7160e01b600052604160045260246000fd5b600082601f8301126119e057600080fd5b813567ffffffffffffffff808211156119fb576119fb6119b9565b604051601f8301601f19908116603f01168101908282118183101715611a2357611a236119b9565b81604052838152866020858801011115611a3c57600080fd5b836020870160208301376000602085830101528094505050505092915050565b600080600080600060a08688031215611a7457600080fd5b853567ffffffffffffffff80821115611a8c57600080fd5b611a9889838a016119cf565b96506020880135915080821115611aae57600080fd5b611aba89838a016119cf565b95506040880135915080821115611ad057600080fd5b611adc89838a016119cf565b9450606088013593506080880135915080821115611af957600080fd5b50611b06888289016119cf565b9150509295509295909350565b60006020808301818452808551808352604092508286019150828160051b87010184880160005b83811015611c2757603f1989840301855281516101608151855288820151818a870152611b6982870182611832565b9150508782015185820389870152611b818282611832565b91505060608083015186830382880152611b9b8382611832565b92505050608080830151818701525060a08083015186830382880152611bc18382611832565b9250505060c080830151611bdf828801826001600160a01b03169052565b505060e080830151611bf38288018261188e565b5050610100828101519086015261012080830151908601526101409182015191909401529386019390860190600101611b3a565b509098975050505050505050565b6020808252825182820181905260009190848201906040850190845b81811015611c6d57835183529284019291840191600101611c51565b50909695505050505050565b600181811c90821680611c8d57607f821691505b602082108103610d9c57634e487b7160e01b600052602260045260246000fd5b634e487b7160e01b600052601160045260246000fd5b600060018201611cd557611cd5611cad565b5060010190565b601f821115611d2657600081815260208120601f850160051c81016020861015611d035750805b601f850160051c820191505b81811015611d2257828155600101611d0f565b5050505b505050565b815167ffffffffffffffff811115611d4557611d456119b9565b611d5981611d538454611c79565b84611cdc565b602080601f831160018114611d8e5760008415611d765750858301515b600019600386901b1c1916600185901b178555611d22565b600085815260208120601f198616915b82811015611dbd57888601518255948401946001909101908401611d9e565b5085821015611ddb5787850151600019600388901b60f8161c191681555b5050505050600190811b01905550565b6020815260006119886020830184611832565b60208082526022908201527f4f6e6c792061646d696e2063616e20706572666f726d2074686973206163746960408201526137b760f11b606082015260800190565b602080825260129082015271125b9d985b1a59081c1c9bda9958dd08125160721b604082015260600190565b81810381811115611e7f57611e7f611cad565b92915050565b634e487b7160e01b600052603260045260246000fd5b8082028115828204841417611e7f57611e7f611cad565b80820180821115611e7f57611e7f611cad56fea2646970667358221220482653ba08dae6e153358888f167f95071229266b37ad30f3f82f7df601e1b2b64736f6c63430008130033",
  "linkReferences": {},
  "deployedLinkReferences": {}
}